{
	".deps/contracts/Moneybox.sol": {
		"Moneybox": {
			"abi": [
				{
					"inputs": [],
					"name": "bal",
					"outputs": [
						{
							"internalType": "uint256",
							"name": "",
							"type": "uint256"
						}
					],
					"stateMutability": "view",
					"type": "function"
				},
				{
					"inputs": [
						{
							"internalType": "uint256",
							"name": "amt",
							"type": "uint256"
						},
						{
							"internalType": "address payable",
							"name": "destAdd",
							"type": "address"
						}
					],
					"name": "withdraw",
					"outputs": [],
					"stateMutability": "nonpayable",
					"type": "function"
				},
				{
					"stateMutability": "payable",
					"type": "receive"
				}
			],
			"devdoc": {
				"kind": "dev",
				"methods": {},
				"version": 1
			},
			"evm": {
				"assembly": "    /* \".deps/contracts/Moneybox.sol\":60:512  contract Moneybox {\r... */\n  mstore(0x40, 0x80)\n  callvalue\n  dup1\n  iszero\n  tag_1\n  jumpi\n  0x00\n  dup1\n  revert\ntag_1:\n  pop\n  dataSize(sub_0)\n  dup1\n  dataOffset(sub_0)\n  0x00\n  codecopy\n  0x00\n  return\nstop\n\nsub_0: assembly {\n        /* \".deps/contracts/Moneybox.sol\":60:512  contract Moneybox {\r... */\n      mstore(0x40, 0x80)\n      jumpi(tag_1, lt(calldatasize, 0x04))\n      shr(0xe0, calldataload(0x00))\n      dup1\n      0xf714ce\n      eq\n      tag_3\n      jumpi\n      dup1\n      0x3d79d1c8\n      eq\n      tag_4\n      jumpi\n      jump(tag_2)\n    tag_1:\n      jumpi(tag_2, calldatasize)\n        /* \".deps/contracts/Moneybox.sol\":230:239  msg.value */\n      callvalue\n        /* \".deps/contracts/Moneybox.sol\":223:226  bal */\n      0x00\n      dup1\n        /* \".deps/contracts/Moneybox.sol\":223:239  bal += msg.value */\n      dup3\n      dup3\n      sload\n      tag_7\n      swap2\n      swap1\n      tag_8\n      jump\t// in\n    tag_7:\n      swap3\n      pop\n      pop\n      dup2\n      swap1\n      sstore\n      pop\n        /* \".deps/contracts/Moneybox.sol\":60:512  contract Moneybox {\r... */\n      stop\n    tag_2:\n      0x00\n      dup1\n      revert\n        /* \".deps/contracts/Moneybox.sol\":255:509  function withdraw(uint amt, address payable destAdd) public {\r... */\n    tag_3:\n      callvalue\n      dup1\n      iszero\n      tag_9\n      jumpi\n      0x00\n      dup1\n      revert\n    tag_9:\n      pop\n      tag_10\n      0x04\n      dup1\n      calldatasize\n      sub\n      dup2\n      add\n      swap1\n      tag_11\n      swap2\n      swap1\n      tag_12\n      jump\t// in\n    tag_11:\n      tag_13\n      jump\t// in\n    tag_10:\n      stop\n        /* \".deps/contracts/Moneybox.sol\":85:103  uint256 public bal */\n    tag_4:\n      callvalue\n      dup1\n      iszero\n      tag_14\n      jumpi\n      0x00\n      dup1\n      revert\n    tag_14:\n      pop\n      tag_15\n      tag_16\n      jump\t// in\n    tag_15:\n      mload(0x40)\n      tag_17\n      swap2\n      swap1\n      tag_18\n      jump\t// in\n    tag_17:\n      mload(0x40)\n      dup1\n      swap2\n      sub\n      swap1\n      return\n        /* \".deps/contracts/Moneybox.sol\":255:509  function withdraw(uint amt, address payable destAdd) public {\r... */\n    tag_13:\n        /* \".deps/contracts/Moneybox.sol\":348:353  owner */\n      0x01\n      0x00\n      swap1\n      sload\n      swap1\n      0x0100\n      exp\n      swap1\n      div\n      0xffffffffffffffffffffffffffffffffffffffff\n      and\n        /* \".deps/contracts/Moneybox.sol\":334:353  msg.sender == owner */\n      0xffffffffffffffffffffffffffffffffffffffff\n      and\n        /* \".deps/contracts/Moneybox.sol\":334:344  msg.sender */\n      caller\n        /* \".deps/contracts/Moneybox.sol\":334:353  msg.sender == owner */\n      0xffffffffffffffffffffffffffffffffffffffff\n      and\n      eq\n        /* \".deps/contracts/Moneybox.sol\":326:381  require(msg.sender == owner, \"only owner can withdraw\") */\n      tag_20\n      jumpi\n      mload(0x40)\n      0x08c379a000000000000000000000000000000000000000000000000000000000\n      dup2\n      mstore\n      0x04\n      add\n      tag_21\n      swap1\n      tag_22\n      jump\t// in\n    tag_21:\n      mload(0x40)\n      dup1\n      swap2\n      sub\n      swap1\n      revert\n    tag_20:\n        /* \".deps/contracts/Moneybox.sol\":407:410  bal */\n      sload(0x00)\n        /* \".deps/contracts/Moneybox.sol\":400:403  amt */\n      dup3\n        /* \".deps/contracts/Moneybox.sol\":400:410  amt <= bal */\n      gt\n      iszero\n        /* \".deps/contracts/Moneybox.sol\":392:446  require(amt <= bal, \"not enough money in your wallet\") */\n      tag_23\n      jumpi\n      mload(0x40)\n      0x08c379a000000000000000000000000000000000000000000000000000000000\n      dup2\n      mstore\n      0x04\n      add\n      tag_24\n      swap1\n      tag_25\n      jump\t// in\n    tag_24:\n      mload(0x40)\n      dup1\n      swap2\n      sub\n      swap1\n      revert\n    tag_23:\n        /* \".deps/contracts/Moneybox.sol\":459:466  destAdd */\n      dup1\n        /* \".deps/contracts/Moneybox.sol\":459:475  destAdd.transfer */\n      0xffffffffffffffffffffffffffffffffffffffff\n      and\n        /* \".deps/contracts/Moneybox.sol\":459:480  destAdd.transfer(amt) */\n      0x08fc\n        /* \".deps/contracts/Moneybox.sol\":476:479  amt */\n      dup4\n        /* \".deps/contracts/Moneybox.sol\":459:480  destAdd.transfer(amt) */\n      swap1\n      dup2\n      iszero\n      mul\n      swap1\n      mload(0x40)\n      0x00\n      mload(0x40)\n      dup1\n      dup4\n      sub\n      dup2\n      dup6\n      dup9\n      dup9\n      call\n      swap4\n      pop\n      pop\n      pop\n      pop\n      iszero\n      dup1\n      iszero\n      tag_27\n      jumpi\n      returndatasize\n      0x00\n      dup1\n      returndatacopy\n      revert(0x00, returndatasize)\n    tag_27:\n      pop\n        /* \".deps/contracts/Moneybox.sol\":498:501  amt */\n      dup2\n        /* \".deps/contracts/Moneybox.sol\":491:494  bal */\n      0x00\n      dup1\n        /* \".deps/contracts/Moneybox.sol\":491:501  bal -= amt */\n      dup3\n      dup3\n      sload\n      tag_28\n      swap2\n      swap1\n      tag_29\n      jump\t// in\n    tag_28:\n      swap3\n      pop\n      pop\n      dup2\n      swap1\n      sstore\n      pop\n        /* \".deps/contracts/Moneybox.sol\":255:509  function withdraw(uint amt, address payable destAdd) public {\r... */\n      pop\n      pop\n      jump\t// out\n        /* \".deps/contracts/Moneybox.sol\":85:103  uint256 public bal */\n    tag_16:\n      sload(0x00)\n      dup2\n      jump\t// out\n        /* \"#utility.yul\":7:162   */\n    tag_31:\n      0x00\n        /* \"#utility.yul\":99:105   */\n      dup2\n        /* \"#utility.yul\":86:106   */\n      calldataload\n        /* \"#utility.yul\":77:106   */\n      swap1\n      pop\n        /* \"#utility.yul\":115:156   */\n      tag_33\n        /* \"#utility.yul\":150:155   */\n      dup2\n        /* \"#utility.yul\":115:156   */\n      tag_34\n      jump\t// in\n    tag_33:\n        /* \"#utility.yul\":67:162   */\n      swap3\n      swap2\n      pop\n      pop\n      jump\t// out\n        /* \"#utility.yul\":168:307   */\n    tag_35:\n      0x00\n        /* \"#utility.yul\":252:258   */\n      dup2\n        /* \"#utility.yul\":239:259   */\n      calldataload\n        /* \"#utility.yul\":230:259   */\n      swap1\n      pop\n        /* \"#utility.yul\":268:301   */\n      tag_37\n        /* \"#utility.yul\":295:300   */\n      dup2\n        /* \"#utility.yul\":268:301   */\n      tag_38\n      jump\t// in\n    tag_37:\n        /* \"#utility.yul\":220:307   */\n      swap3\n      swap2\n      pop\n      pop\n      jump\t// out\n        /* \"#utility.yul\":313:736   */\n    tag_12:\n      0x00\n      dup1\n        /* \"#utility.yul\":446:448   */\n      0x40\n        /* \"#utility.yul\":434:443   */\n      dup4\n        /* \"#utility.yul\":425:432   */\n      dup6\n        /* \"#utility.yul\":421:444   */\n      sub\n        /* \"#utility.yul\":417:449   */\n      slt\n        /* \"#utility.yul\":414:416   */\n      iszero\n      tag_40\n      jumpi\n        /* \"#utility.yul\":462:463   */\n      0x00\n        /* \"#utility.yul\":459:460   */\n      dup1\n        /* \"#utility.yul\":452:464   */\n      revert\n        /* \"#utility.yul\":414:416   */\n    tag_40:\n        /* \"#utility.yul\":505:506   */\n      0x00\n        /* \"#utility.yul\":530:583   */\n      tag_41\n        /* \"#utility.yul\":575:582   */\n      dup6\n        /* \"#utility.yul\":566:572   */\n      dup3\n        /* \"#utility.yul\":555:564   */\n      dup7\n        /* \"#utility.yul\":551:573   */\n      add\n        /* \"#utility.yul\":530:583   */\n      tag_35\n      jump\t// in\n    tag_41:\n        /* \"#utility.yul\":520:583   */\n      swap3\n      pop\n        /* \"#utility.yul\":476:593   */\n      pop\n        /* \"#utility.yul\":632:634   */\n      0x20\n        /* \"#utility.yul\":658:719   */\n      tag_42\n        /* \"#utility.yul\":711:718   */\n      dup6\n        /* \"#utility.yul\":702:708   */\n      dup3\n        /* \"#utility.yul\":691:700   */\n      dup7\n        /* \"#utility.yul\":687:709   */\n      add\n        /* \"#utility.yul\":658:719   */\n      tag_31\n      jump\t// in\n    tag_42:\n        /* \"#utility.yul\":648:719   */\n      swap2\n      pop\n        /* \"#utility.yul\":603:729   */\n      pop\n        /* \"#utility.yul\":404:736   */\n      swap3\n      pop\n      swap3\n      swap1\n      pop\n      jump\t// out\n        /* \"#utility.yul\":742:1063   */\n    tag_43:\n      0x00\n        /* \"#utility.yul\":905:972   */\n      tag_45\n        /* \"#utility.yul\":969:971   */\n      0x17\n        /* \"#utility.yul\":964:967   */\n      dup4\n        /* \"#utility.yul\":905:972   */\n      tag_46\n      jump\t// in\n    tag_45:\n        /* \"#utility.yul\":898:972   */\n      swap2\n      pop\n        /* \"#utility.yul\":1002:1027   */\n      0x6f6e6c79206f776e65722063616e207769746864726177000000000000000000\n        /* \"#utility.yul\":998:999   */\n      0x00\n        /* \"#utility.yul\":993:996   */\n      dup4\n        /* \"#utility.yul\":989:1000   */\n      add\n        /* \"#utility.yul\":982:1028   */\n      mstore\n        /* \"#utility.yul\":1054:1056   */\n      0x20\n        /* \"#utility.yul\":1049:1052   */\n      dup3\n        /* \"#utility.yul\":1045:1057   */\n      add\n        /* \"#utility.yul\":1038:1057   */\n      swap1\n      pop\n        /* \"#utility.yul\":888:1063   */\n      swap2\n      swap1\n      pop\n      jump\t// out\n        /* \"#utility.yul\":1069:1398   */\n    tag_47:\n      0x00\n        /* \"#utility.yul\":1232:1299   */\n      tag_49\n        /* \"#utility.yul\":1296:1298   */\n      0x1f\n        /* \"#utility.yul\":1291:1294   */\n      dup4\n        /* \"#utility.yul\":1232:1299   */\n      tag_46\n      jump\t// in\n    tag_49:\n        /* \"#utility.yul\":1225:1299   */\n      swap2\n      pop\n        /* \"#utility.yul\":1329:1362   */\n      0x6e6f7420656e6f756768206d6f6e657920696e20796f75722077616c6c657400\n        /* \"#utility.yul\":1325:1326   */\n      0x00\n        /* \"#utility.yul\":1320:1323   */\n      dup4\n        /* \"#utility.yul\":1316:1327   */\n      add\n        /* \"#utility.yul\":1309:1363   */\n      mstore\n        /* \"#utility.yul\":1389:1391   */\n      0x20\n        /* \"#utility.yul\":1384:1387   */\n      dup3\n        /* \"#utility.yul\":1380:1392   */\n      add\n        /* \"#utility.yul\":1373:1392   */\n      swap1\n      pop\n        /* \"#utility.yul\":1215:1398   */\n      swap2\n      swap1\n      pop\n      jump\t// out\n        /* \"#utility.yul\":1404:1522   */\n    tag_50:\n        /* \"#utility.yul\":1491:1515   */\n      tag_52\n        /* \"#utility.yul\":1509:1514   */\n      dup2\n        /* \"#utility.yul\":1491:1515   */\n      tag_53\n      jump\t// in\n    tag_52:\n        /* \"#utility.yul\":1486:1489   */\n      dup3\n        /* \"#utility.yul\":1479:1516   */\n      mstore\n        /* \"#utility.yul\":1469:1522   */\n      pop\n      pop\n      jump\t// out\n        /* \"#utility.yul\":1528:1947   */\n    tag_22:\n      0x00\n        /* \"#utility.yul\":1732:1734   */\n      0x20\n        /* \"#utility.yul\":1721:1730   */\n      dup3\n        /* \"#utility.yul\":1717:1735   */\n      add\n        /* \"#utility.yul\":1709:1735   */\n      swap1\n      pop\n        /* \"#utility.yul\":1781:1790   */\n      dup2\n        /* \"#utility.yul\":1775:1779   */\n      dup2\n        /* \"#utility.yul\":1771:1791   */\n      sub\n        /* \"#utility.yul\":1767:1768   */\n      0x00\n        /* \"#utility.yul\":1756:1765   */\n      dup4\n        /* \"#utility.yul\":1752:1769   */\n      add\n        /* \"#utility.yul\":1745:1792   */\n      mstore\n        /* \"#utility.yul\":1809:1940   */\n      tag_55\n        /* \"#utility.yul\":1935:1939   */\n      dup2\n        /* \"#utility.yul\":1809:1940   */\n      tag_43\n      jump\t// in\n    tag_55:\n        /* \"#utility.yul\":1801:1940   */\n      swap1\n      pop\n        /* \"#utility.yul\":1699:1947   */\n      swap2\n      swap1\n      pop\n      jump\t// out\n        /* \"#utility.yul\":1953:2372   */\n    tag_25:\n      0x00\n        /* \"#utility.yul\":2157:2159   */\n      0x20\n        /* \"#utility.yul\":2146:2155   */\n      dup3\n        /* \"#utility.yul\":2142:2160   */\n      add\n        /* \"#utility.yul\":2134:2160   */\n      swap1\n      pop\n        /* \"#utility.yul\":2206:2215   */\n      dup2\n        /* \"#utility.yul\":2200:2204   */\n      dup2\n        /* \"#utility.yul\":2196:2216   */\n      sub\n        /* \"#utility.yul\":2192:2193   */\n      0x00\n        /* \"#utility.yul\":2181:2190   */\n      dup4\n        /* \"#utility.yul\":2177:2194   */\n      add\n        /* \"#utility.yul\":2170:2217   */\n      mstore\n        /* \"#utility.yul\":2234:2365   */\n      tag_57\n        /* \"#utility.yul\":2360:2364   */\n      dup2\n        /* \"#utility.yul\":2234:2365   */\n      tag_47\n      jump\t// in\n    tag_57:\n        /* \"#utility.yul\":2226:2365   */\n      swap1\n      pop\n        /* \"#utility.yul\":2124:2372   */\n      swap2\n      swap1\n      pop\n      jump\t// out\n        /* \"#utility.yul\":2378:2600   */\n    tag_18:\n      0x00\n        /* \"#utility.yul\":2509:2511   */\n      0x20\n        /* \"#utility.yul\":2498:2507   */\n      dup3\n        /* \"#utility.yul\":2494:2512   */\n      add\n        /* \"#utility.yul\":2486:2512   */\n      swap1\n      pop\n        /* \"#utility.yul\":2522:2593   */\n      tag_59\n        /* \"#utility.yul\":2590:2591   */\n      0x00\n        /* \"#utility.yul\":2579:2588   */\n      dup4\n        /* \"#utility.yul\":2575:2592   */\n      add\n        /* \"#utility.yul\":2566:2572   */\n      dup5\n        /* \"#utility.yul\":2522:2593   */\n      tag_50\n      jump\t// in\n    tag_59:\n        /* \"#utility.yul\":2476:2600   */\n      swap3\n      swap2\n      pop\n      pop\n      jump\t// out\n        /* \"#utility.yul\":2606:2775   */\n    tag_46:\n      0x00\n        /* \"#utility.yul\":2724:2730   */\n      dup3\n        /* \"#utility.yul\":2719:2722   */\n      dup3\n        /* \"#utility.yul\":2712:2731   */\n      mstore\n        /* \"#utility.yul\":2764:2768   */\n      0x20\n        /* \"#utility.yul\":2759:2762   */\n      dup3\n        /* \"#utility.yul\":2755:2769   */\n      add\n        /* \"#utility.yul\":2740:2769   */\n      swap1\n      pop\n        /* \"#utility.yul\":2702:2775   */\n      swap3\n      swap2\n      pop\n      pop\n      jump\t// out\n        /* \"#utility.yul\":2781:3086   */\n    tag_8:\n      0x00\n        /* \"#utility.yul\":2840:2860   */\n      tag_62\n        /* \"#utility.yul\":2858:2859   */\n      dup3\n        /* \"#utility.yul\":2840:2860   */\n      tag_53\n      jump\t// in\n    tag_62:\n        /* \"#utility.yul\":2835:2860   */\n      swap2\n      pop\n        /* \"#utility.yul\":2874:2894   */\n      tag_63\n        /* \"#utility.yul\":2892:2893   */\n      dup4\n        /* \"#utility.yul\":2874:2894   */\n      tag_53\n      jump\t// in\n    tag_63:\n        /* \"#utility.yul\":2869:2894   */\n      swap3\n      pop\n        /* \"#utility.yul\":3028:3029   */\n      dup3\n        /* \"#utility.yul\":2960:3026   */\n      0xffffffffffffffffffffffffffffffffffffffffffffffffffffffffffffffff\n        /* \"#utility.yul\":2956:3030   */\n      sub\n        /* \"#utility.yul\":2953:2954   */\n      dup3\n        /* \"#utility.yul\":2950:3031   */\n      gt\n        /* \"#utility.yul\":2947:2949   */\n      iszero\n      tag_64\n      jumpi\n        /* \"#utility.yul\":3034:3052   */\n      tag_65\n      tag_66\n      jump\t// in\n    tag_65:\n        /* \"#utility.yul\":2947:2949   */\n    tag_64:\n        /* \"#utility.yul\":3078:3079   */\n      dup3\n        /* \"#utility.yul\":3075:3076   */\n      dup3\n        /* \"#utility.yul\":3071:3080   */\n      add\n        /* \"#utility.yul\":3064:3080   */\n      swap1\n      pop\n        /* \"#utility.yul\":2825:3086   */\n      swap3\n      swap2\n      pop\n      pop\n      jump\t// out\n        /* \"#utility.yul\":3092:3283   */\n    tag_29:\n      0x00\n        /* \"#utility.yul\":3152:3172   */\n      tag_68\n        /* \"#utility.yul\":3170:3171   */\n      dup3\n        /* \"#utility.yul\":3152:3172   */\n      tag_53\n      jump\t// in\n    tag_68:\n        /* \"#utility.yul\":3147:3172   */\n      swap2\n      pop\n        /* \"#utility.yul\":3186:3206   */\n      tag_69\n        /* \"#utility.yul\":3204:3205   */\n      dup4\n        /* \"#utility.yul\":3186:3206   */\n      tag_53\n      jump\t// in\n    tag_69:\n        /* \"#utility.yul\":3181:3206   */\n      swap3\n      pop\n        /* \"#utility.yul\":3225:3226   */\n      dup3\n        /* \"#utility.yul\":3222:3223   */\n      dup3\n        /* \"#utility.yul\":3219:3227   */\n      lt\n        /* \"#utility.yul\":3216:3218   */\n      iszero\n      tag_70\n      jumpi\n        /* \"#utility.yul\":3230:3248   */\n      tag_71\n      tag_66\n      jump\t// in\n    tag_71:\n        /* \"#utility.yul\":3216:3218   */\n    tag_70:\n        /* \"#utility.yul\":3275:3276   */\n      dup3\n        /* \"#utility.yul\":3272:3273   */\n      dup3\n        /* \"#utility.yul\":3268:3277   */\n      sub\n        /* \"#utility.yul\":3260:3277   */\n      swap1\n      pop\n        /* \"#utility.yul\":3137:3283   */\n      swap3\n      swap2\n      pop\n      pop\n      jump\t// out\n        /* \"#utility.yul\":3289:3393   */\n    tag_72:\n      0x00\n        /* \"#utility.yul\":3363:3387   */\n      tag_74\n        /* \"#utility.yul\":3381:3386   */\n      dup3\n        /* \"#utility.yul\":3363:3387   */\n      tag_75\n      jump\t// in\n    tag_74:\n        /* \"#utility.yul\":3352:3387   */\n      swap1\n      pop\n        /* \"#utility.yul\":3342:3393   */\n      swap2\n      swap1\n      pop\n      jump\t// out\n        /* \"#utility.yul\":3399:3525   */\n    tag_75:\n      0x00\n        /* \"#utility.yul\":3476:3518   */\n      0xffffffffffffffffffffffffffffffffffffffff\n        /* \"#utility.yul\":3469:3474   */\n      dup3\n        /* \"#utility.yul\":3465:3519   */\n      and\n        /* \"#utility.yul\":3454:3519   */\n      swap1\n      pop\n        /* \"#utility.yul\":3444:3525   */\n      swap2\n      swap1\n      pop\n      jump\t// out\n        /* \"#utility.yul\":3531:3608   */\n    tag_53:\n      0x00\n        /* \"#utility.yul\":3597:3602   */\n      dup2\n        /* \"#utility.yul\":3586:3602   */\n      swap1\n      pop\n        /* \"#utility.yul\":3576:3608   */\n      swap2\n      swap1\n      pop\n      jump\t// out\n        /* \"#utility.yul\":3614:3794   */\n    tag_66:\n        /* \"#utility.yul\":3662:3739   */\n      0x4e487b7100000000000000000000000000000000000000000000000000000000\n        /* \"#utility.yul\":3659:3660   */\n      0x00\n        /* \"#utility.yul\":3652:3740   */\n      mstore\n        /* \"#utility.yul\":3759:3763   */\n      0x11\n        /* \"#utility.yul\":3756:3757   */\n      0x04\n        /* \"#utility.yul\":3749:3764   */\n      mstore\n        /* \"#utility.yul\":3783:3787   */\n      0x24\n        /* \"#utility.yul\":3780:3781   */\n      0x00\n        /* \"#utility.yul\":3773:3788   */\n      revert\n        /* \"#utility.yul\":3800:3938   */\n    tag_34:\n        /* \"#utility.yul\":3881:3913   */\n      tag_80\n        /* \"#utility.yul\":3907:3912   */\n      dup2\n        /* \"#utility.yul\":3881:3913   */\n      tag_72\n      jump\t// in\n    tag_80:\n        /* \"#utility.yul\":3874:3879   */\n      dup2\n        /* \"#utility.yul\":3871:3914   */\n      eq\n        /* \"#utility.yul\":3861:3863   */\n      tag_81\n      jumpi\n        /* \"#utility.yul\":3928:3929   */\n      0x00\n        /* \"#utility.yul\":3925:3926   */\n      dup1\n        /* \"#utility.yul\":3918:3930   */\n      revert\n        /* \"#utility.yul\":3861:3863   */\n    tag_81:\n        /* \"#utility.yul\":3851:3938   */\n      pop\n      jump\t// out\n        /* \"#utility.yul\":3944:4066   */\n    tag_38:\n        /* \"#utility.yul\":4017:4041   */\n      tag_83\n        /* \"#utility.yul\":4035:4040   */\n      dup2\n        /* \"#utility.yul\":4017:4041   */\n      tag_53\n      jump\t// in\n    tag_83:\n        /* \"#utility.yul\":4010:4015   */\n      dup2\n        /* \"#utility.yul\":4007:4042   */\n      eq\n        /* \"#utility.yul\":3997:3999   */\n      tag_84\n      jumpi\n        /* \"#utility.yul\":4056:4057   */\n      0x00\n        /* \"#utility.yul\":4053:4054   */\n      dup1\n        /* \"#utility.yul\":4046:4058   */\n      revert\n        /* \"#utility.yul\":3997:3999   */\n    tag_84:\n        /* \"#utility.yul\":3987:4066   */\n      pop\n      jump\t// out\n\n    auxdata: 0xa26469706673582212209f8f967fbd1f2362ed3eaf29bf73dd9b1a0a5d42eb798eb1b43d276654ae379c64736f6c63430008000033\n}\n",
				"bytecode": {
					"linkReferences": {},
					"object": "608060405234801561001057600080fd5b5061049c806100206000396000f3fe60806040526004361061002c5760003560e01c8062f714ce146100505780633d79d1c8146100795761004b565b3661004b57346000808282546100429190610343565b92505081905550005b600080fd5b34801561005c57600080fd5b506100776004803603810190610072919061020c565b6100a4565b005b34801561008557600080fd5b5061008e6101dc565b60405161009b9190610317565b60405180910390f35b600160009054906101000a900473ffffffffffffffffffffffffffffffffffffffff1673ffffffffffffffffffffffffffffffffffffffff163373ffffffffffffffffffffffffffffffffffffffff1614610134576040517f08c379a000000000000000000000000000000000000000000000000000000000815260040161012b906102d7565b60405180910390fd5b600054821115610179576040517f08c379a0000000000000000000000000000000000000000000000000000000008152600401610170906102f7565b60405180910390fd5b8073ffffffffffffffffffffffffffffffffffffffff166108fc839081150290604051600060405180830381858888f193505050501580156101bf573d6000803e3d6000fd5b50816000808282546101d19190610399565b925050819055505050565b60005481565b6000813590506101f181610438565b92915050565b6000813590506102068161044f565b92915050565b6000806040838503121561021f57600080fd5b600061022d858286016101f7565b925050602061023e858286016101e2565b9150509250929050565b6000610255601783610332565b91507f6f6e6c79206f776e65722063616e2077697468647261770000000000000000006000830152602082019050919050565b6000610295601f83610332565b91507f6e6f7420656e6f756768206d6f6e657920696e20796f75722077616c6c6574006000830152602082019050919050565b6102d1816103ff565b82525050565b600060208201905081810360008301526102f081610248565b9050919050565b6000602082019050818103600083015261031081610288565b9050919050565b600060208201905061032c60008301846102c8565b92915050565b600082825260208201905092915050565b600061034e826103ff565b9150610359836103ff565b9250827fffffffffffffffffffffffffffffffffffffffffffffffffffffffffffffffff0382111561038e5761038d610409565b5b828201905092915050565b60006103a4826103ff565b91506103af836103ff565b9250828210156103c2576103c1610409565b5b828203905092915050565b60006103d8826103df565b9050919050565b600073ffffffffffffffffffffffffffffffffffffffff82169050919050565b6000819050919050565b7f4e487b7100000000000000000000000000000000000000000000000000000000600052601160045260246000fd5b610441816103cd565b811461044c57600080fd5b50565b610458816103ff565b811461046357600080fd5b5056fea26469706673582212209f8f967fbd1f2362ed3eaf29bf73dd9b1a0a5d42eb798eb1b43d276654ae379c64736f6c63430008000033",
					"opcodes": "PUSH1 0x80 PUSH1 0x40 MSTORE CALLVALUE DUP1 ISZERO PUSH2 0x10 JUMPI PUSH1 0x0 DUP1 REVERT JUMPDEST POP PUSH2 0x49C DUP1 PUSH2 0x20 PUSH1 0x0 CODECOPY PUSH1 0x0 RETURN INVALID PUSH1 0x80 PUSH1 0x40 MSTORE PUSH1 0x4 CALLDATASIZE LT PUSH2 0x2C JUMPI PUSH1 0x0 CALLDATALOAD PUSH1 0xE0 SHR DUP1 PUSH3 0xF714CE EQ PUSH2 0x50 JUMPI DUP1 PUSH4 0x3D79D1C8 EQ PUSH2 0x79 JUMPI PUSH2 0x4B JUMP JUMPDEST CALLDATASIZE PUSH2 0x4B JUMPI CALLVALUE PUSH1 0x0 DUP1 DUP3 DUP3 SLOAD PUSH2 0x42 SWAP2 SWAP1 PUSH2 0x343 JUMP JUMPDEST SWAP3 POP POP DUP2 SWAP1 SSTORE POP STOP JUMPDEST PUSH1 0x0 DUP1 REVERT JUMPDEST CALLVALUE DUP1 ISZERO PUSH2 0x5C JUMPI PUSH1 0x0 DUP1 REVERT JUMPDEST POP PUSH2 0x77 PUSH1 0x4 DUP1 CALLDATASIZE SUB DUP2 ADD SWAP1 PUSH2 0x72 SWAP2 SWAP1 PUSH2 0x20C JUMP JUMPDEST PUSH2 0xA4 JUMP JUMPDEST STOP JUMPDEST CALLVALUE DUP1 ISZERO PUSH2 0x85 JUMPI PUSH1 0x0 DUP1 REVERT JUMPDEST POP PUSH2 0x8E PUSH2 0x1DC JUMP JUMPDEST PUSH1 0x40 MLOAD PUSH2 0x9B SWAP2 SWAP1 PUSH2 0x317 JUMP JUMPDEST PUSH1 0x40 MLOAD DUP1 SWAP2 SUB SWAP1 RETURN JUMPDEST PUSH1 0x1 PUSH1 0x0 SWAP1 SLOAD SWAP1 PUSH2 0x100 EXP SWAP1 DIV PUSH20 0xFFFFFFFFFFFFFFFFFFFFFFFFFFFFFFFFFFFFFFFF AND PUSH20 0xFFFFFFFFFFFFFFFFFFFFFFFFFFFFFFFFFFFFFFFF AND CALLER PUSH20 0xFFFFFFFFFFFFFFFFFFFFFFFFFFFFFFFFFFFFFFFF AND EQ PUSH2 0x134 JUMPI PUSH1 0x40 MLOAD PUSH32 0x8C379A000000000000000000000000000000000000000000000000000000000 DUP2 MSTORE PUSH1 0x4 ADD PUSH2 0x12B SWAP1 PUSH2 0x2D7 JUMP JUMPDEST PUSH1 0x40 MLOAD DUP1 SWAP2 SUB SWAP1 REVERT JUMPDEST PUSH1 0x0 SLOAD DUP3 GT ISZERO PUSH2 0x179 JUMPI PUSH1 0x40 MLOAD PUSH32 0x8C379A000000000000000000000000000000000000000000000000000000000 DUP2 MSTORE PUSH1 0x4 ADD PUSH2 0x170 SWAP1 PUSH2 0x2F7 JUMP JUMPDEST PUSH1 0x40 MLOAD DUP1 SWAP2 SUB SWAP1 REVERT JUMPDEST DUP1 PUSH20 0xFFFFFFFFFFFFFFFFFFFFFFFFFFFFFFFFFFFFFFFF AND PUSH2 0x8FC DUP4 SWAP1 DUP2 ISZERO MUL SWAP1 PUSH1 0x40 MLOAD PUSH1 0x0 PUSH1 0x40 MLOAD DUP1 DUP4 SUB DUP2 DUP6 DUP9 DUP9 CALL SWAP4 POP POP POP POP ISZERO DUP1 ISZERO PUSH2 0x1BF JUMPI RETURNDATASIZE PUSH1 0x0 DUP1 RETURNDATACOPY RETURNDATASIZE PUSH1 0x0 REVERT JUMPDEST POP DUP2 PUSH1 0x0 DUP1 DUP3 DUP3 SLOAD PUSH2 0x1D1 SWAP2 SWAP1 PUSH2 0x399 JUMP JUMPDEST SWAP3 POP POP DUP2 SWAP1 SSTORE POP POP POP JUMP JUMPDEST PUSH1 0x0 SLOAD DUP2 JUMP JUMPDEST PUSH1 0x0 DUP2 CALLDATALOAD SWAP1 POP PUSH2 0x1F1 DUP2 PUSH2 0x438 JUMP JUMPDEST SWAP3 SWAP2 POP POP JUMP JUMPDEST PUSH1 0x0 DUP2 CALLDATALOAD SWAP1 POP PUSH2 0x206 DUP2 PUSH2 0x44F JUMP JUMPDEST SWAP3 SWAP2 POP POP JUMP JUMPDEST PUSH1 0x0 DUP1 PUSH1 0x40 DUP4 DUP6 SUB SLT ISZERO PUSH2 0x21F JUMPI PUSH1 0x0 DUP1 REVERT JUMPDEST PUSH1 0x0 PUSH2 0x22D DUP6 DUP3 DUP7 ADD PUSH2 0x1F7 JUMP JUMPDEST SWAP3 POP POP PUSH1 0x20 PUSH2 0x23E DUP6 DUP3 DUP7 ADD PUSH2 0x1E2 JUMP JUMPDEST SWAP2 POP POP SWAP3 POP SWAP3 SWAP1 POP JUMP JUMPDEST PUSH1 0x0 PUSH2 0x255 PUSH1 0x17 DUP4 PUSH2 0x332 JUMP JUMPDEST SWAP2 POP PUSH32 0x6F6E6C79206F776E65722063616E207769746864726177000000000000000000 PUSH1 0x0 DUP4 ADD MSTORE PUSH1 0x20 DUP3 ADD SWAP1 POP SWAP2 SWAP1 POP JUMP JUMPDEST PUSH1 0x0 PUSH2 0x295 PUSH1 0x1F DUP4 PUSH2 0x332 JUMP JUMPDEST SWAP2 POP PUSH32 0x6E6F7420656E6F756768206D6F6E657920696E20796F75722077616C6C657400 PUSH1 0x0 DUP4 ADD MSTORE PUSH1 0x20 DUP3 ADD SWAP1 POP SWAP2 SWAP1 POP JUMP JUMPDEST PUSH2 0x2D1 DUP2 PUSH2 0x3FF JUMP JUMPDEST DUP3 MSTORE POP POP JUMP JUMPDEST PUSH1 0x0 PUSH1 0x20 DUP3 ADD SWAP1 POP DUP2 DUP2 SUB PUSH1 0x0 DUP4 ADD MSTORE PUSH2 0x2F0 DUP2 PUSH2 0x248 JUMP JUMPDEST SWAP1 POP SWAP2 SWAP1 POP JUMP JUMPDEST PUSH1 0x0 PUSH1 0x20 DUP3 ADD SWAP1 POP DUP2 DUP2 SUB PUSH1 0x0 DUP4 ADD MSTORE PUSH2 0x310 DUP2 PUSH2 0x288 JUMP JUMPDEST SWAP1 POP SWAP2 SWAP1 POP JUMP JUMPDEST PUSH1 0x0 PUSH1 0x20 DUP3 ADD SWAP1 POP PUSH2 0x32C PUSH1 0x0 DUP4 ADD DUP5 PUSH2 0x2C8 JUMP JUMPDEST SWAP3 SWAP2 POP POP JUMP JUMPDEST PUSH1 0x0 DUP3 DUP3 MSTORE PUSH1 0x20 DUP3 ADD SWAP1 POP SWAP3 SWAP2 POP POP JUMP JUMPDEST PUSH1 0x0 PUSH2 0x34E DUP3 PUSH2 0x3FF JUMP JUMPDEST SWAP2 POP PUSH2 0x359 DUP4 PUSH2 0x3FF JUMP JUMPDEST SWAP3 POP DUP3 PUSH32 0xFFFFFFFFFFFFFFFFFFFFFFFFFFFFFFFFFFFFFFFFFFFFFFFFFFFFFFFFFFFFFFFF SUB DUP3 GT ISZERO PUSH2 0x38E JUMPI PUSH2 0x38D PUSH2 0x409 JUMP JUMPDEST JUMPDEST DUP3 DUP3 ADD SWAP1 POP SWAP3 SWAP2 POP POP JUMP JUMPDEST PUSH1 0x0 PUSH2 0x3A4 DUP3 PUSH2 0x3FF JUMP JUMPDEST SWAP2 POP PUSH2 0x3AF DUP4 PUSH2 0x3FF JUMP JUMPDEST SWAP3 POP DUP3 DUP3 LT ISZERO PUSH2 0x3C2 JUMPI PUSH2 0x3C1 PUSH2 0x409 JUMP JUMPDEST JUMPDEST DUP3 DUP3 SUB SWAP1 POP SWAP3 SWAP2 POP POP JUMP JUMPDEST PUSH1 0x0 PUSH2 0x3D8 DUP3 PUSH2 0x3DF JUMP JUMPDEST SWAP1 POP SWAP2 SWAP1 POP JUMP JUMPDEST PUSH1 0x0 PUSH20 0xFFFFFFFFFFFFFFFFFFFFFFFFFFFFFFFFFFFFFFFF DUP3 AND SWAP1 POP SWAP2 SWAP1 POP JUMP JUMPDEST PUSH1 0x0 DUP2 SWAP1 POP SWAP2 SWAP1 POP JUMP JUMPDEST PUSH32 0x4E487B7100000000000000000000000000000000000000000000000000000000 PUSH1 0x0 MSTORE PUSH1 0x11 PUSH1 0x4 MSTORE PUSH1 0x24 PUSH1 0x0 REVERT JUMPDEST PUSH2 0x441 DUP2 PUSH2 0x3CD JUMP JUMPDEST DUP2 EQ PUSH2 0x44C JUMPI PUSH1 0x0 DUP1 REVERT JUMPDEST POP JUMP JUMPDEST PUSH2 0x458 DUP2 PUSH2 0x3FF JUMP JUMPDEST DUP2 EQ PUSH2 0x463 JUMPI PUSH1 0x0 DUP1 REVERT JUMPDEST POP JUMP INVALID LOG2 PUSH5 0x6970667358 0x22 SLT KECCAK256 SWAP16 DUP16 SWAP7 PUSH32 0xBD1F2362ED3EAF29BF73DD9B1A0A5D42EB798EB1B43D276654AE379C64736F6C PUSH4 0x43000800 STOP CALLER "
				},
				"gasEstimates": {
					"creation": {
						"codeDepositCost": "236000",
						"executionCost": "275",
						"totalCost": "236275"
					},
					"external": {
						"bal()": "1129",
						"withdraw(uint256,address)": "infinite"
					}
				},
				"methodIdentifiers": {
					"bal()": "3d79d1c8",
					"withdraw(uint256,address)": "00f714ce"
				}
			},
			"storageLayout": {
				"storage": [
					{
						"astId": 3,
						"contract": ".deps/contracts/Moneybox.sol:Moneybox",
						"label": "bal",
						"offset": 0,
						"slot": "0",
						"type": "t_uint256"
					},
					{
						"astId": 5,
						"contract": ".deps/contracts/Moneybox.sol:Moneybox",
						"label": "owner",
						"offset": 0,
						"slot": "1",
						"type": "t_address"
					}
				],
				"types": {
					"t_address": {
						"encoding": "inplace",
						"label": "address",
						"numberOfBytes": "20"
					},
					"t_uint256": {
						"encoding": "inplace",
						"label": "uint256",
						"numberOfBytes": "32"
					}
				}
			},
			"userdoc": {
				"kind": "user",
				"methods": {},
				"version": 1
			}
		}
	}
}